{
  "_format": "hh-sol-artifact-1",
  "contractName": "heartbeat",
  "sourceName": "contracts/heartbeat.sol",
  "abi": [
    {
      "inputs": [
        {
          "internalType": "string",
          "name": "_name",
          "type": "string"
        },
        {
          "internalType": "string",
          "name": "_symbol",
          "type": "string"
        },
        {
          "internalType": "string",
          "name": "_metadataFolderURI",
          "type": "string"
        },
        {
          "internalType": "uint256",
          "name": "_freeMints",
          "type": "uint256"
        },
        {
          "internalType": "uint256",
          "name": "_mintsPerAddress",
          "type": "uint256"
        },
        {
          "internalType": "string",
          "name": "_openseaContractMetadataURL",
          "type": "string"
        },
        {
          "internalType": "bool",
          "name": "_mintActive",
          "type": "bool"
        }
      ],
      "stateMutability": "nonpayable",
      "type": "constructor"
    },
    {
      "anonymous": false,
      "inputs": [
        {
          "indexed": true,
          "internalType": "address",
          "name": "owner",
          "type": "address"
        },
        {
          "indexed": true,
          "internalType": "address",
          "name": "approved",
          "type": "address"
        },
        {
          "indexed": true,
          "internalType": "uint256",
          "name": "tokenId",
          "type": "uint256"
        }
      ],
      "name": "Approval",
      "type": "event"
    },
    {
      "anonymous": false,
      "inputs": [
        {
          "indexed": true,
          "internalType": "address",
          "name": "owner",
          "type": "address"
        },
        {
          "indexed": true,
          "internalType": "address",
          "name": "operator",
          "type": "address"
        },
        {
          "indexed": false,
          "internalType": "bool",
          "name": "approved",
          "type": "bool"
        }
      ],
      "name": "ApprovalForAll",
      "type": "event"
    },
    {
      "anonymous": false,
      "inputs": [
        {
          "indexed": true,
          "internalType": "address",
          "name": "previousOwner",
          "type": "address"
        },
        {
          "indexed": true,
          "internalType": "address",
          "name": "newOwner",
          "type": "address"
        }
      ],
      "name": "OwnershipTransferred",
      "type": "event"
    },
    {
      "anonymous": false,
      "inputs": [
        {
          "indexed": true,
          "internalType": "address",
          "name": "from",
          "type": "address"
        },
        {
          "indexed": true,
          "internalType": "address",
          "name": "to",
          "type": "address"
        },
        {
          "indexed": true,
          "internalType": "uint256",
          "name": "tokenId",
          "type": "uint256"
        }
      ],
      "name": "Transfer",
      "type": "event"
    },
    {
      "inputs": [
        {
          "internalType": "address",
          "name": "to",
          "type": "address"
        },
        {
          "internalType": "uint256",
          "name": "tokenId",
          "type": "uint256"
        }
      ],
      "name": "approve",
      "outputs": [],
      "stateMutability": "nonpayable",
      "type": "function"
    },
    {
      "inputs": [
        {
          "internalType": "address",
          "name": "owner",
          "type": "address"
        }
      ],
      "name": "balanceOf",
      "outputs": [
        {
          "internalType": "uint256",
          "name": "",
          "type": "uint256"
        }
      ],
      "stateMutability": "view",
      "type": "function"
    },
    {
      "inputs": [],
      "name": "contractURI",
      "outputs": [
        {
          "internalType": "string",
          "name": "",
          "type": "string"
        }
      ],
      "stateMutability": "view",
      "type": "function"
    },
    {
      "inputs": [],
      "name": "freeMints",
      "outputs": [
        {
          "internalType": "uint256",
          "name": "",
          "type": "uint256"
        }
      ],
      "stateMutability": "view",
      "type": "function"
    },
    {
      "inputs": [
        {
          "internalType": "uint256",
          "name": "tokenId",
          "type": "uint256"
        }
      ],
      "name": "getApproved",
      "outputs": [
        {
          "internalType": "address",
          "name": "",
          "type": "address"
        }
      ],
      "stateMutability": "view",
      "type": "function"
    },
    {
      "inputs": [],
      "name": "getBalance",
      "outputs": [
        {
          "internalType": "uint256",
          "name": "",
          "type": "uint256"
        }
      ],
      "stateMutability": "view",
      "type": "function"
    },
    {
      "inputs": [
        {
          "internalType": "address",
          "name": "owner",
          "type": "address"
        },
        {
          "internalType": "address",
          "name": "operator",
          "type": "address"
        }
      ],
      "name": "isApprovedForAll",
      "outputs": [
        {
          "internalType": "bool",
          "name": "",
          "type": "bool"
        }
      ],
      "stateMutability": "view",
      "type": "function"
    },
    {
      "inputs": [],
      "name": "isMintFree",
      "outputs": [
        {
          "internalType": "bool",
          "name": "",
          "type": "bool"
        }
      ],
      "stateMutability": "view",
      "type": "function"
    },
    {
      "inputs": [],
      "name": "metadataFolderURI",
      "outputs": [
        {
          "internalType": "string",
          "name": "",
          "type": "string"
        }
      ],
      "stateMutability": "view",
      "type": "function"
    },
    {
      "inputs": [],
      "name": "mint",
      "outputs": [],
      "stateMutability": "payable",
      "type": "function"
    },
    {
      "inputs": [],
      "name": "mintActive",
      "outputs": [
        {
          "internalType": "bool",
          "name": "",
          "type": "bool"
        }
      ],
      "stateMutability": "view",
      "type": "function"
    },
    {
      "inputs": [
        {
          "internalType": "address",
          "name": "",
          "type": "address"
        }
      ],
      "name": "minted",
      "outputs": [
        {
          "internalType": "uint256",
          "name": "",
          "type": "uint256"
        }
      ],
      "stateMutability": "view",
      "type": "function"
    },
    {
      "inputs": [],
      "name": "mintedCount",
      "outputs": [
        {
          "internalType": "uint256",
          "name": "",
          "type": "uint256"
        }
      ],
      "stateMutability": "view",
      "type": "function"
    },
    {
      "inputs": [],
      "name": "mintsPerAddress",
      "outputs": [
        {
          "internalType": "uint256",
          "name": "",
          "type": "uint256"
        }
      ],
      "stateMutability": "view",
      "type": "function"
    },
    {
      "inputs": [],
      "name": "name",
      "outputs": [
        {
          "internalType": "string",
          "name": "",
          "type": "string"
        }
      ],
      "stateMutability": "view",
      "type": "function"
    },
    {
      "inputs": [],
      "name": "openseaContractMetadataURL",
      "outputs": [
        {
          "internalType": "string",
          "name": "",
          "type": "string"
        }
      ],
      "stateMutability": "view",
      "type": "function"
    },
    {
      "inputs": [],
      "name": "owner",
      "outputs": [
        {
          "internalType": "address",
          "name": "",
          "type": "address"
        }
      ],
      "stateMutability": "view",
      "type": "function"
    },
    {
      "inputs": [
        {
          "internalType": "uint256",
          "name": "tokenId",
          "type": "uint256"
        }
      ],
      "name": "ownerOf",
      "outputs": [
        {
          "internalType": "address",
          "name": "",
          "type": "address"
        }
      ],
      "stateMutability": "view",
      "type": "function"
    },
    {
      "inputs": [
        {
          "internalType": "address",
          "name": "payee",
          "type": "address"
        },
        {
          "internalType": "uint256",
          "name": "amountInEth",
          "type": "uint256"
        }
      ],
      "name": "pay",
      "outputs": [],
      "stateMutability": "nonpayable",
      "type": "function"
    },
    {
      "inputs": [],
      "name": "price",
      "outputs": [
        {
          "internalType": "uint256",
          "name": "",
          "type": "uint256"
        }
      ],
      "stateMutability": "view",
      "type": "function"
    },
    {
      "inputs": [],
      "name": "renounceOwnership",
      "outputs": [],
      "stateMutability": "nonpayable",
      "type": "function"
    },
    {
      "inputs": [],
      "name": "reverseBirthday",
      "outputs": [
        {
          "internalType": "uint256",
          "name": "",
          "type": "uint256"
        }
      ],
      "stateMutability": "view",
      "type": "function"
    },
    {
      "inputs": [
        {
          "internalType": "address",
          "name": "from",
          "type": "address"
        },
        {
          "internalType": "address",
          "name": "to",
          "type": "address"
        },
        {
          "internalType": "uint256",
          "name": "tokenId",
          "type": "uint256"
        }
      ],
      "name": "safeTransferFrom",
      "outputs": [],
      "stateMutability": "nonpayable",
      "type": "function"
    },
    {
      "inputs": [
        {
          "internalType": "address",
          "name": "from",
          "type": "address"
        },
        {
          "internalType": "address",
          "name": "to",
          "type": "address"
        },
        {
          "internalType": "uint256",
          "name": "tokenId",
          "type": "uint256"
        },
        {
          "internalType": "bytes",
          "name": "_data",
          "type": "bytes"
        }
      ],
      "name": "safeTransferFrom",
      "outputs": [],
      "stateMutability": "nonpayable",
      "type": "function"
    },
    {
      "inputs": [
        {
          "internalType": "address",
          "name": "operator",
          "type": "address"
        },
        {
          "internalType": "bool",
          "name": "approved",
          "type": "bool"
        }
      ],
      "name": "setApprovalForAll",
      "outputs": [],
      "stateMutability": "nonpayable",
      "type": "function"
    },
    {
      "inputs": [
        {
          "internalType": "string",
          "name": "folderUrl",
          "type": "string"
        }
      ],
      "name": "setMetadataFolderURI",
      "outputs": [],
      "stateMutability": "nonpayable",
      "type": "function"
    },
    {
      "inputs": [
        {
          "internalType": "bool",
          "name": "_mintActive",
          "type": "bool"
        }
      ],
      "name": "setMintActive",
      "outputs": [],
      "stateMutability": "nonpayable",
      "type": "function"
    },
    {
      "inputs": [
        {
          "internalType": "bytes4",
          "name": "interfaceId",
          "type": "bytes4"
        }
      ],
      "name": "supportsInterface",
      "outputs": [
        {
          "internalType": "bool",
          "name": "",
          "type": "bool"
        }
      ],
      "stateMutability": "view",
      "type": "function"
    },
    {
      "inputs": [],
      "name": "symbol",
      "outputs": [
        {
          "internalType": "string",
          "name": "",
          "type": "string"
        }
      ],
      "stateMutability": "view",
      "type": "function"
    },
    {
      "inputs": [
        {
          "internalType": "uint256",
          "name": "tokenId",
          "type": "uint256"
        }
      ],
      "name": "tokenURI",
      "outputs": [
        {
          "internalType": "string",
          "name": "",
          "type": "string"
        }
      ],
      "stateMutability": "view",
      "type": "function"
    },
    {
      "inputs": [
        {
          "internalType": "address",
          "name": "from",
          "type": "address"
        },
        {
          "internalType": "address",
          "name": "to",
          "type": "address"
        },
        {
          "internalType": "uint256",
          "name": "tokenId",
          "type": "uint256"
        }
      ],
      "name": "transferFrom",
      "outputs": [],
      "stateMutability": "nonpayable",
      "type": "function"
    },
    {
      "inputs": [
        {
          "internalType": "address",
          "name": "newOwner",
          "type": "address"
        }
      ],
      "name": "transferOwnership",
      "outputs": [],
      "stateMutability": "nonpayable",
      "type": "function"
    },
    {
      "inputs": [],
      "name": "withdraw",
      "outputs": [],
      "stateMutability": "nonpayable",
      "type": "function"
    }
  ],
  "bytecode": "0x60806040523480156200001157600080fd5b50604051620021a2380380620021a28339810160408190526200003491620002a1565b8651879087906200004d9060009060208501906200012e565b508051620000639060019060208401906200012e565b505050620000806200007a620000d860201b60201c565b620000dc565b8451620000959060089060208801906200012e565b50600c84905543600a55600d8390558151620000b990600e9060208501906200012e565b50600b805460ff191691151591909117905550620003d3945050505050565b3390565b600680546001600160a01b038381166001600160a01b0319831681179093556040519116919082907f8be0079c531659141344cd1fd0a4f28419497f9722a3daafe3b4186f6b6457e090600090a35050565b8280546200013c9062000380565b90600052602060002090601f016020900481019282620001605760008555620001ab565b82601f106200017b57805160ff1916838001178555620001ab565b82800160010185558215620001ab579182015b82811115620001ab5782518255916020019190600101906200018e565b50620001b9929150620001bd565b5090565b5b80821115620001b95760008155600101620001be565b80518015158114620001e557600080fd5b919050565b600082601f830112620001fc57600080fd5b81516001600160401b0380821115620002195762000219620003bd565b604051601f8301601f19908116603f01168101908282118183101715620002445762000244620003bd565b816040528381526020925086838588010111156200026157600080fd5b600091505b8382101562000285578582018301518183018401529082019062000266565b83821115620002975760008385830101525b9695505050505050565b600080600080600080600060e0888a031215620002bd57600080fd5b87516001600160401b0380821115620002d557600080fd5b620002e38b838c01620001ea565b985060208a0151915080821115620002fa57600080fd5b620003088b838c01620001ea565b975060408a01519150808211156200031f57600080fd5b6200032d8b838c01620001ea565b965060608a0151955060808a0151945060a08a01519150808211156200035257600080fd5b50620003618a828b01620001ea565b9250506200037260c08901620001d4565b905092959891949750929550565b600181811c908216806200039557607f821691505b60208210811415620003b757634e487b7160e01b600052602260045260246000fd5b50919050565b634e487b7160e01b600052604160045260246000fd5b611dbf80620003e36000396000f3fe60806040526004361061017e5760003560e01c806301ffc9a71461018357806306fdde03146101b8578063081812fc146101da578063095ea7b31461021257806312065fe0146102345780631249c58b146102515780631e7269c51461025957806323b872dd1461028657806325fd90f3146102a65780632ec376b8146102c05780633ccfd60b146102d657806342842e0e146102eb57806347cce0911461030b5780636352211e1461032157806370a0823114610341578063715018a61461036157806380b17335146103765780638da5cb5b1461038c5780638f9d8520146103a157806395d89b41146103c15780639a893c16146103d6578063a035b1fe146103eb578063a1182e8e14610406578063a22cb4651461041b578063ac7fdfaf1461043b578063b88d4fde14610450578063c407687614610470578063c87b56dd14610490578063cf721b15146104b0578063e8a3d485146104c5578063e985e9c5146104da578063ee1cc944146104fa578063f2fde38b1461051a575b600080fd5b34801561018f57600080fd5b506101a361019e366004611947565b61053a565b60405190151581526020015b60405180910390f35b3480156101c457600080fd5b506101cd61058c565b6040516101af9190611b37565b3480156101e657600080fd5b506101fa6101f53660046119f2565b61061e565b6040516001600160a01b0390911681526020016101af565b34801561021e57600080fd5b5061023261022d366004611902565b6106ab565b005b34801561024057600080fd5b50475b6040519081526020016101af565b6102326107bc565b34801561026557600080fd5b5061024361027436600461176c565b60096020526000908152604090205481565b34801561029257600080fd5b506102326102a13660046117c1565b610946565b3480156102b257600080fd5b50600b546101a39060ff1681565b3480156102cc57600080fd5b50610243600a5481565b3480156102e257600080fd5b50610232610977565b3480156102f757600080fd5b506102326103063660046117c1565b6109d9565b34801561031757600080fd5b50610243600d5481565b34801561032d57600080fd5b506101fa61033c3660046119f2565b6109f4565b34801561034d57600080fd5b5061024361035c36600461176c565b610a6b565b34801561036d57600080fd5b50610232610af2565b34801561038257600080fd5b50610243600c5481565b34801561039857600080fd5b506101fa610b2d565b3480156103ad57600080fd5b506102326103bc366004611981565b610b3c565b3480156103cd57600080fd5b506101cd610b77565b3480156103e257600080fd5b506101cd610b86565b3480156103f757600080fd5b50610243662386f26fc1000081565b34801561041257600080fd5b506101cd610c14565b34801561042757600080fd5b506102326104363660046118d8565b610c21565b34801561044757600080fd5b506101a3610c2c565b34801561045c57600080fd5b5061023261046b3660046117fd565b610c40565b34801561047c57600080fd5b5061023261048b366004611902565b610c78565b34801561049c57600080fd5b506101cd6104ab3660046119f2565b610d2e565b3480156104bc57600080fd5b50610243610dd1565b3480156104d157600080fd5b506101cd610de1565b3480156104e657600080fd5b506101a36104f536600461178e565b610df0565b34801561050657600080fd5b5061023261051536600461192c565b610e1e565b34801561052657600080fd5b5061023261053536600461176c565b610e60565b60006001600160e01b031982166380ac58cd60e01b148061056b57506001600160e01b03198216635b5e139f60e01b145b8061058657506301ffc9a760e01b6001600160e01b03198316145b92915050565b60606000805461059b90611c91565b80601f01602080910402602001604051908101604052809291908181526020018280546105c790611c91565b80156106145780601f106105e957610100808354040283529160200191610614565b820191906000526020600020905b8154815290600101906020018083116105f757829003601f168201915b5050505050905090565b600061062982610efd565b61068f5760405162461bcd60e51b815260206004820152602c60248201527f4552433732313a20617070726f76656420717565727920666f72206e6f6e657860448201526b34b9ba32b73a103a37b5b2b760a11b60648201526084015b60405180910390fd5b506000908152600460205260409020546001600160a01b031690565b60006106b6826109f4565b9050806001600160a01b0316836001600160a01b031614156107245760405162461bcd60e51b815260206004820152602160248201527f4552433732313a20617070726f76616c20746f2063757272656e74206f776e656044820152603960f91b6064820152608401610686565b336001600160a01b038216148061074057506107408133610df0565b6107ad5760405162461bcd60e51b815260206004820152603860248201527f4552433732313a20617070726f76652063616c6c6572206973206e6f74206f776044820152771b995c881b9bdc88185c1c1c9bdd995908199bdc88185b1b60421b6064820152608401610686565b6107b78383610f1a565b505050565b600b5460ff16151560011461080d5760405162461bcd60e51b815260206004820152601760248201527636b4b73a1034b9903737ba1030b1ba34bb32903937171760491b6044820152606401610686565b32331461084f5760405162461bcd60e51b815260206004820152601060248201526f191bdb9d0819d95d0814d95d995b89d960821b6044820152606401610686565b600d5433600090815260096020526040902054106108af5760405162461bcd60e51b815260206004820152601e60248201527f6f6e6c792031206d696e74207065722077616c6c6574206164647265737300006044820152606401610686565b662386f26fc1000034146108fe5760405162461bcd60e51b81526020600482015260166024820152750dad2dce8d2dcce40c6dee6e8e640605c606240cae8d60531b6044820152606401610686565b61090c600780546001019055565b33600090815260096020526040812080549161092783611ccc565b9190505550600061093760075490565b90506109433382610f88565b50565b6109503382610fa2565b61096c5760405162461bcd60e51b815260040161068690611bd1565b6107b783838361106c565b33610980610b2d565b6001600160a01b0316146109a65760405162461bcd60e51b815260040161068690611b9c565b6040514790339082156108fc029083906000818181858888f193505050501580156109d5573d6000803e3d6000fd5b5050565b6107b783838360405180602001604052806000815250610c40565b6000818152600260205260408120546001600160a01b0316806105865760405162461bcd60e51b815260206004820152602960248201527f4552433732313a206f776e657220717565727920666f72206e6f6e657869737460448201526832b73a103a37b5b2b760b91b6064820152608401610686565b60006001600160a01b038216610ad65760405162461bcd60e51b815260206004820152602a60248201527f4552433732313a2062616c616e636520717565727920666f7220746865207a65604482015269726f206164647265737360b01b6064820152608401610686565b506001600160a01b031660009081526003602052604090205490565b33610afb610b2d565b6001600160a01b031614610b215760405162461bcd60e51b815260040161068690611b9c565b610b2b60006111fa565b565b6006546001600160a01b031690565b33610b45610b2d565b6001600160a01b031614610b6b5760405162461bcd60e51b815260040161068690611b9c565b6107b7600883836116a7565b60606001805461059b90611c91565b600e8054610b9390611c91565b80601f0160208091040260200160405190810160405280929190818152602001828054610bbf90611c91565b8015610c0c5780601f10610be157610100808354040283529160200191610c0c565b820191906000526020600020905b815481529060010190602001808311610bef57829003601f168201915b505050505081565b60088054610b9390611c91565b6109d533838361124c565b6000610c3760075490565b600c5411905090565b610c4a3383610fa2565b610c665760405162461bcd60e51b815260040161068690611bd1565b610c7284848484611317565b50505050565b33610c81610b2d565b6001600160a01b031614610ca75760405162461bcd60e51b815260040161068690611b9c565b4781811015610cf85760405162461bcd60e51b815260206004820152601e60248201527f576520646f6e7420686176652074686174206d75636820746f207061792100006044820152606401610686565b6040516001600160a01b0384169083156108fc029084906000818181858888f19350505050158015610c72573d6000803e3d6000fd5b6060610d3982610efd565b610d9f5760405162461bcd60e51b815260206004820152603160248201527f45524337323155524953746f726167653a2055524920717565727920666f72206044820152703737b732bc34b9ba32b73a103a37b5b2b760791b6064820152608401610686565b6008610daa8361134a565b604051602001610dbb929190611a53565b6040516020818303038152906040529050919050565b6000610ddc60075490565b905090565b6060600e805461059b90611c91565b6001600160a01b03918216600090815260056020908152604080832093909416825291909152205460ff1690565b33610e27610b2d565b6001600160a01b031614610e4d5760405162461bcd60e51b815260040161068690611b9c565b600b805460ff1916911515919091179055565b33610e69610b2d565b6001600160a01b031614610e8f5760405162461bcd60e51b815260040161068690611b9c565b6001600160a01b038116610ef45760405162461bcd60e51b815260206004820152602660248201527f4f776e61626c653a206e6577206f776e657220697320746865207a65726f206160448201526564647265737360d01b6064820152608401610686565b610943816111fa565b6000908152600260205260409020546001600160a01b0316151590565b600081815260046020526040902080546001600160a01b0319166001600160a01b0384169081179091558190610f4f826109f4565b6001600160a01b03167f8c5be1e5ebec7d5bd14f71427d1e84f3dd0314c0f7b2291e5b200ac8c7c3b92560405160405180910390a45050565b6109d5828260405180602001604052806000815250611447565b6000610fad82610efd565b61100e5760405162461bcd60e51b815260206004820152602c60248201527f4552433732313a206f70657261746f7220717565727920666f72206e6f6e657860448201526b34b9ba32b73a103a37b5b2b760a11b6064820152608401610686565b6000611019836109f4565b9050806001600160a01b0316846001600160a01b031614806110545750836001600160a01b03166110498461061e565b6001600160a01b0316145b8061106457506110648185610df0565b949350505050565b826001600160a01b031661107f826109f4565b6001600160a01b0316146110e75760405162461bcd60e51b815260206004820152602960248201527f4552433732313a207472616e73666572206f6620746f6b656e2074686174206960448201526839903737ba1037bbb760b91b6064820152608401610686565b6001600160a01b0382166111495760405162461bcd60e51b8152602060048201526024808201527f4552433732313a207472616e7366657220746f20746865207a65726f206164646044820152637265737360e01b6064820152608401610686565b611154600082610f1a565b6001600160a01b038316600090815260036020526040812080546001929061117d908490611c4e565b90915550506001600160a01b03821660009081526003602052604081208054600192906111ab908490611c22565b909155505060008181526002602052604080822080546001600160a01b0319166001600160a01b038681169182179092559151849391871691600080516020611d6a83398151915291a4505050565b600680546001600160a01b038381166001600160a01b0319831681179093556040519116919082907f8be0079c531659141344cd1fd0a4f28419497f9722a3daafe3b4186f6b6457e090600090a35050565b816001600160a01b0316836001600160a01b031614156112aa5760405162461bcd60e51b815260206004820152601960248201527822a9219b99189d1030b8383937bb32903a379031b0b63632b960391b6044820152606401610686565b6001600160a01b03838116600081815260056020908152604080832094871680845294825291829020805460ff191686151590811790915591519182527f17307eab39ab6107e8899845ad3d59bd9653f200f220920489ca2b5937696c31910160405180910390a3505050565b61132284848461106c565b61132e8484848461147a565b610c725760405162461bcd60e51b815260040161068690611b4a565b60608161136e5750506040805180820190915260018152600360fc1b602082015290565b8160005b8115611398578061138281611ccc565b91506113919050600a83611c3a565b9150611372565b6000816001600160401b038111156113b2576113b2611d3d565b6040519080825280601f01601f1916602001820160405280156113dc576020820181803683370190505b5090505b8415611064576113f1600183611c4e565b91506113fe600a86611ce7565b611409906030611c22565b60f81b81838151811061141e5761141e611d27565b60200101906001600160f81b031916908160001a905350611440600a86611c3a565b94506113e0565b6114518383611587565b61145e600084848461147a565b6107b75760405162461bcd60e51b815260040161068690611b4a565b60006001600160a01b0384163b1561157c57604051630a85bd0160e11b81526001600160a01b0385169063150b7a02906114be903390899088908890600401611afa565b602060405180830381600087803b1580156114d857600080fd5b505af1925050508015611508575060408051601f3d908101601f1916820190925261150591810190611964565b60015b611562573d808015611536576040519150601f19603f3d011682016040523d82523d6000602084013e61153b565b606091505b50805161155a5760405162461bcd60e51b815260040161068690611b4a565b805181602001fd5b6001600160e01b031916630a85bd0160e11b149050611064565b506001949350505050565b6001600160a01b0382166115dd5760405162461bcd60e51b815260206004820181905260248201527f4552433732313a206d696e7420746f20746865207a65726f20616464726573736044820152606401610686565b6115e681610efd565b156116325760405162461bcd60e51b815260206004820152601c60248201527b115490cdcc8c4e881d1bdad95b88185b1c9958591e481b5a5b9d195960221b6044820152606401610686565b6001600160a01b038216600090815260036020526040812080546001929061165b908490611c22565b909155505060008181526002602052604080822080546001600160a01b0319166001600160a01b0386169081179091559051839290600080516020611d6a833981519152908290a45050565b8280546116b390611c91565b90600052602060002090601f0160209004810192826116d5576000855561171b565b82601f106116ee5782800160ff1982351617855561171b565b8280016001018555821561171b579182015b8281111561171b578235825591602001919060010190611700565b5061172792915061172b565b5090565b5b80821115611727576000815560010161172c565b80356001600160a01b038116811461175757600080fd5b919050565b8035801515811461175757600080fd5b60006020828403121561177e57600080fd5b61178782611740565b9392505050565b600080604083850312156117a157600080fd5b6117aa83611740565b91506117b860208401611740565b90509250929050565b6000806000606084860312156117d657600080fd5b6117df84611740565b92506117ed60208501611740565b9150604084013590509250925092565b6000806000806080858703121561181357600080fd5b61181c85611740565b935061182a60208601611740565b92506040850135915060608501356001600160401b038082111561184d57600080fd5b818701915087601f83011261186157600080fd5b81358181111561187357611873611d3d565b604051601f8201601f19908116603f0116810190838211818310171561189b5761189b611d3d565b816040528281528a60208487010111156118b457600080fd5b82602086016020830137600060208483010152809550505050505092959194509250565b600080604083850312156118eb57600080fd5b6118f483611740565b91506117b86020840161175c565b6000806040838503121561191557600080fd5b61191e83611740565b946020939093013593505050565b60006020828403121561193e57600080fd5b6117878261175c565b60006020828403121561195957600080fd5b813561178781611d53565b60006020828403121561197657600080fd5b815161178781611d53565b6000806020838503121561199457600080fd5b82356001600160401b03808211156119ab57600080fd5b818501915085601f8301126119bf57600080fd5b8135818111156119ce57600080fd5b8660208285010111156119e057600080fd5b60209290920196919550909350505050565b600060208284031215611a0457600080fd5b5035919050565b60008151808452611a23816020860160208601611c65565b601f01601f19169290920160200192915050565b60008151611a49818560208601611c65565b9290920192915050565b600080845481600182811c915080831680611a6f57607f831692505b6020808410821415611a8f57634e487b7160e01b86526022600452602486fd5b818015611aa35760018114611ab457611ae1565b60ff19861689528489019650611ae1565b60008b81526020902060005b86811015611ad95781548b820152908501908301611ac0565b505084890196505b505050505050611af18185611a37565b95945050505050565b6001600160a01b0385811682528416602082015260408101839052608060608201819052600090611b2d90830184611a0b565b9695505050505050565b6020815260006117876020830184611a0b565b60208082526032908201527f4552433732313a207472616e7366657220746f206e6f6e20455243373231526560408201527131b2b4bb32b91034b6b83632b6b2b73a32b960711b606082015260800190565b6020808252818101527f4f776e61626c653a2063616c6c6572206973206e6f7420746865206f776e6572604082015260600190565b60208082526031908201527f4552433732313a207472616e736665722063616c6c6572206973206e6f74206f6040820152701ddb995c881b9bdc88185c1c1c9bdd9959607a1b606082015260800190565b60008219821115611c3557611c35611cfb565b500190565b600082611c4957611c49611d11565b500490565b600082821015611c6057611c60611cfb565b500390565b60005b83811015611c80578181015183820152602001611c68565b83811115610c725750506000910152565b600181811c90821680611ca557607f821691505b60208210811415611cc657634e487b7160e01b600052602260045260246000fd5b50919050565b6000600019821415611ce057611ce0611cfb565b5060010190565b600082611cf657611cf6611d11565b500690565b634e487b7160e01b600052601160045260246000fd5b634e487b7160e01b600052601260045260246000fd5b634e487b7160e01b600052603260045260246000fd5b634e487b7160e01b600052604160045260246000fd5b6001600160e01b03198116811461094357600080fdfeddf252ad1be2c89b69c2b068fc378daa952ba7f163c4a11628f55a4df523b3efa264697066735822122010ec324980ff870fe9234c40f8dc8d585ad150b8c5091e8760cf87da422a573264736f6c63430008060033",
  "linkReferences": {},
  "deployedLinkReferences": {}
}